{
  "contractName": "CarRental",
  "abi": [
    {
      "anonymous": false,
      "inputs": [
        {
          "indexed": false,
          "internalType": "uint256",
          "name": "carId",
          "type": "uint256"
        },
        {
          "indexed": false,
          "internalType": "address",
          "name": "renter",
          "type": "address"
        },
        {
          "indexed": false,
          "internalType": "uint256",
          "name": "startDate",
          "type": "uint256"
        },
        {
          "indexed": false,
          "internalType": "uint256",
          "name": "endDate",
          "type": "uint256"
        }
      ],
      "name": "CarBooked",
      "type": "event"
    },
    {
      "anonymous": false,
      "inputs": [
        {
          "indexed": false,
          "internalType": "uint256",
          "name": "id",
          "type": "uint256"
        },
        {
          "indexed": false,
          "internalType": "string",
          "name": "model",
          "type": "string"
        },
        {
          "indexed": false,
          "internalType": "uint256",
          "name": "price",
          "type": "uint256"
        },
        {
          "indexed": false,
          "internalType": "address",
          "name": "owner",
          "type": "address"
        }
      ],
      "name": "CarListed",
      "type": "event"
    },
    {
      "inputs": [
        {
          "internalType": "uint256",
          "name": "",
          "type": "uint256"
        },
        {
          "internalType": "uint256",
          "name": "",
          "type": "uint256"
        }
      ],
      "name": "bookings",
      "outputs": [
        {
          "internalType": "uint256",
          "name": "carId",
          "type": "uint256"
        },
        {
          "internalType": "address",
          "name": "renter",
          "type": "address"
        },
        {
          "internalType": "uint256",
          "name": "startDate",
          "type": "uint256"
        },
        {
          "internalType": "uint256",
          "name": "endDate",
          "type": "uint256"
        }
      ],
      "stateMutability": "view",
      "type": "function"
    },
    {
      "inputs": [],
      "name": "carCount",
      "outputs": [
        {
          "internalType": "uint256",
          "name": "",
          "type": "uint256"
        }
      ],
      "stateMutability": "view",
      "type": "function"
    },
    {
      "inputs": [
        {
          "internalType": "uint256",
          "name": "",
          "type": "uint256"
        }
      ],
      "name": "cars",
      "outputs": [
        {
          "internalType": "uint256",
          "name": "id",
          "type": "uint256"
        },
        {
          "internalType": "string",
          "name": "model",
          "type": "string"
        },
        {
          "internalType": "uint256",
          "name": "pricePerDay",
          "type": "uint256"
        },
        {
          "internalType": "address payable",
          "name": "owner",
          "type": "address"
        },
        {
          "internalType": "bool",
          "name": "isAvailable",
          "type": "bool"
        }
      ],
      "stateMutability": "view",
      "type": "function"
    },
    {
      "inputs": [
        {
          "internalType": "string",
          "name": "_model",
          "type": "string"
        },
        {
          "internalType": "uint256",
          "name": "_pricePerDay",
          "type": "uint256"
        }
      ],
      "name": "listCar",
      "outputs": [],
      "stateMutability": "nonpayable",
      "type": "function"
    },
    {
      "inputs": [
        {
          "internalType": "uint256",
          "name": "_carId",
          "type": "uint256"
        },
        {
          "internalType": "uint256",
          "name": "_startDate",
          "type": "uint256"
        },
        {
          "internalType": "uint256",
          "name": "_endDate",
          "type": "uint256"
        }
      ],
      "name": "bookCar",
      "outputs": [],
      "stateMutability": "payable",
      "type": "function"
    },
    {
      "inputs": [
        {
          "internalType": "uint256",
          "name": "_carId",
          "type": "uint256"
        }
      ],
      "name": "getBookings",
      "outputs": [
        {
          "components": [
            {
              "internalType": "uint256",
              "name": "carId",
              "type": "uint256"
            },
            {
              "internalType": "address",
              "name": "renter",
              "type": "address"
            },
            {
              "internalType": "uint256",
              "name": "startDate",
              "type": "uint256"
            },
            {
              "internalType": "uint256",
              "name": "endDate",
              "type": "uint256"
            }
          ],
          "internalType": "struct CarRental.Booking[]",
          "name": "",
          "type": "tuple[]"
        }
      ],
      "stateMutability": "view",
      "type": "function"
    }
  ],
  "bytecode": "0x608060405234801561000f575f80fd5b506113748061001d5f395ff3fe608060405260043610610054575f3560e01c8063297a1f5614610058578063312c73b3146100825780637f836a25146100c157806390756116146100dd578063f401099514610105578063f7746e3614610141575b5f80fd5b348015610063575f80fd5b5061006c610181565b60405161007991906107dc565b60405180910390f35b34801561008d575f80fd5b506100a860048036038101906100a39190610830565b610186565b6040516100b894939291906108ad565b60405180910390f35b6100db60048036038101906100d691906108f0565b6101eb565b005b3480156100e8575f80fd5b5061010360048036038101906100fe9190610a7c565b610483565b005b348015610110575f80fd5b5061012b60048036038101906101269190610ad6565b610601565b6040516101389190610c1a565b60405180910390f35b34801561014c575f80fd5b5061016760048036038101906101629190610ad6565b6106e0565b604051610178959493929190610cee565b60405180910390f35b5f5481565b6002602052815f5260405f20818154811061019f575f80fd5b905f5260205f2090600402015f9150915050805f015490806001015f9054906101000a900473ffffffffffffffffffffffffffffffffffffffff16908060020154908060030154905084565b5f60015f8581526020019081526020015f2090508060030160149054906101000a900460ff16610250576040517f08c379a000000000000000000000000000000000000000000000000000000000815260040161024790610d90565b60405180910390fd5b818310610292576040517f08c379a000000000000000000000000000000000000000000000000000000000815260040161028990610df8565b60405180910390fd5b5f6201518084846102a39190610e43565b6102ad9190610ea3565b90505f8260020154826102c09190610ed3565b905080341015610305576040517f08c379a00000000000000000000000000000000000000000000000000000000081526004016102fc90610f5e565b60405180910390fd5b826003015f9054906101000a900473ffffffffffffffffffffffffffffffffffffffff1673ffffffffffffffffffffffffffffffffffffffff166108fc3490811502906040515f60405180830381858888f1935050505015801561036b573d5f803e3d5ffd5b5060025f8781526020019081526020015f2060405180608001604052808881526020013373ffffffffffffffffffffffffffffffffffffffff16815260200187815260200186815250908060018154018082558091505060019003905f5260205f2090600402015f909190919091505f820151815f01556020820151816001015f6101000a81548173ffffffffffffffffffffffffffffffffffffffff021916908373ffffffffffffffffffffffffffffffffffffffff160217905550604082015181600201556060820151816003015550507f0fb6b13bf27e3e59ab1573091b1c3570feac2da90303e051fa2f48e09e7c37808633878760405161047394939291906108ad565b60405180910390a1505050505050565b5f81116104c5576040517f08c379a00000000000000000000000000000000000000000000000000000000081526004016104bc90610fc6565b60405180910390fd5b5f808154809291906104d690610fe4565b91905055506040518060a001604052805f5481526020018381526020018281526020013373ffffffffffffffffffffffffffffffffffffffff1681526020016001151581525060015f805481526020019081526020015f205f820151815f0155602082015181600101908161054b9190611225565b50604082015181600201556060820151816003015f6101000a81548173ffffffffffffffffffffffffffffffffffffffff021916908373ffffffffffffffffffffffffffffffffffffffff16021790555060808201518160030160146101000a81548160ff0219169083151502179055509050507f0cec75d177d2ae383136ca8972ffc53fb9b5b24152123f4df2530f49aa07dbb55f548383336040516105f594939291906112f4565b60405180910390a15050565b606060025f8381526020019081526020015f20805480602002602001604051908101604052809291908181526020015f905b828210156106d5578382905f5260205f2090600402016040518060800160405290815f8201548152602001600182015f9054906101000a900473ffffffffffffffffffffffffffffffffffffffff1673ffffffffffffffffffffffffffffffffffffffff1673ffffffffffffffffffffffffffffffffffffffff1681526020016002820154815260200160038201548152505081526020019060010190610633565b505050509050919050565b6001602052805f5260405f205f91509050805f01549080600101805461070590611058565b80601f016020809104026020016040519081016040528092919081815260200182805461073190611058565b801561077c5780601f106107535761010080835404028352916020019161077c565b820191905f5260205f20905b81548152906001019060200180831161075f57829003601f168201915b505050505090806002015490806003015f9054906101000a900473ffffffffffffffffffffffffffffffffffffffff16908060030160149054906101000a900460ff16905085565b5f819050919050565b6107d6816107c4565b82525050565b5f6020820190506107ef5f8301846107cd565b92915050565b5f604051905090565b5f80fd5b5f80fd5b61080f816107c4565b8114610819575f80fd5b50565b5f8135905061082a81610806565b92915050565b5f8060408385031215610846576108456107fe565b5b5f6108538582860161081c565b92505060206108648582860161081c565b9150509250929050565b5f73ffffffffffffffffffffffffffffffffffffffff82169050919050565b5f6108978261086e565b9050919050565b6108a78161088d565b82525050565b5f6080820190506108c05f8301876107cd565b6108cd602083018661089e565b6108da60408301856107cd565b6108e760608301846107cd565b95945050505050565b5f805f60608486031215610907576109066107fe565b5b5f6109148682870161081c565b93505060206109258682870161081c565b92505060406109368682870161081c565b9150509250925092565b5f80fd5b5f80fd5b5f601f19601f8301169050919050565b7f4e487b71000000000000000000000000000000000000000000000000000000005f52604160045260245ffd5b61098e82610948565b810181811067ffffffffffffffff821117156109ad576109ac610958565b5b80604052505050565b5f6109bf6107f5565b90506109cb8282610985565b919050565b5f67ffffffffffffffff8211156109ea576109e9610958565b5b6109f382610948565b9050602081019050919050565b828183375f83830152505050565b5f610a20610a1b846109d0565b6109b6565b905082815260208101848484011115610a3c57610a3b610944565b5b610a47848285610a00565b509392505050565b5f82601f830112610a6357610a62610940565b5b8135610a73848260208601610a0e565b91505092915050565b5f8060408385031215610a9257610a916107fe565b5b5f83013567ffffffffffffffff811115610aaf57610aae610802565b5b610abb85828601610a4f565b9250506020610acc8582860161081c565b9150509250929050565b5f60208284031215610aeb57610aea6107fe565b5b5f610af88482850161081c565b91505092915050565b5f81519050919050565b5f82825260208201905092915050565b5f819050602082019050919050565b610b33816107c4565b82525050565b610b428161088d565b82525050565b608082015f820151610b5c5f850182610b2a565b506020820151610b6f6020850182610b39565b506040820151610b826040850182610b2a565b506060820151610b956060850182610b2a565b50505050565b5f610ba68383610b48565b60808301905092915050565b5f602082019050919050565b5f610bc882610b01565b610bd28185610b0b565b9350610bdd83610b1b565b805f5b83811015610c0d578151610bf48882610b9b565b9750610bff83610bb2565b925050600181019050610be0565b5085935050505092915050565b5f6020820190508181035f830152610c328184610bbe565b905092915050565b5f81519050919050565b5f82825260208201905092915050565b5f5b83811015610c71578082015181840152602081019050610c56565b5f8484015250505050565b5f610c8682610c3a565b610c908185610c44565b9350610ca0818560208601610c54565b610ca981610948565b840191505092915050565b5f610cbe8261086e565b9050919050565b610cce81610cb4565b82525050565b5f8115159050919050565b610ce881610cd4565b82525050565b5f60a082019050610d015f8301886107cd565b8181036020830152610d138187610c7c565b9050610d2260408301866107cd565b610d2f6060830185610cc5565b610d3c6080830184610cdf565b9695505050505050565b7f436172206e6f7420617661696c61626c650000000000000000000000000000005f82015250565b5f610d7a601183610c44565b9150610d8582610d46565b602082019050919050565b5f6020820190508181035f830152610da781610d6e565b9050919050565b7f496e76616c6964206461746573000000000000000000000000000000000000005f82015250565b5f610de2600d83610c44565b9150610ded82610dae565b602082019050919050565b5f6020820190508181035f830152610e0f81610dd6565b9050919050565b7f4e487b71000000000000000000000000000000000000000000000000000000005f52601160045260245ffd5b5f610e4d826107c4565b9150610e58836107c4565b9250828203905081811115610e7057610e6f610e16565b5b92915050565b7f4e487b71000000000000000000000000000000000000000000000000000000005f52601260045260245ffd5b5f610ead826107c4565b9150610eb8836107c4565b925082610ec857610ec7610e76565b5b828204905092915050565b5f610edd826107c4565b9150610ee8836107c4565b9250828202610ef6816107c4565b91508282048414831517610f0d57610f0c610e16565b5b5092915050565b7f496e73756666696369656e74207061796d656e740000000000000000000000005f82015250565b5f610f48601483610c44565b9150610f5382610f14565b602082019050919050565b5f6020820190508181035f830152610f7581610f3c565b9050919050565b7f5072696365206d7573742062652067726561746572207468616e2030000000005f82015250565b5f610fb0601c83610c44565b9150610fbb82610f7c565b602082019050919050565b5f6020820190508181035f830152610fdd81610fa4565b9050919050565b5f610fee826107c4565b91507fffffffffffffffffffffffffffffffffffffffffffffffffffffffffffffffff82036110205761101f610e16565b5b600182019050919050565b7f4e487b71000000000000000000000000000000000000000000000000000000005f52602260045260245ffd5b5f600282049050600182168061106f57607f821691505b6020821081036110825761108161102b565b5b50919050565b5f819050815f5260205f209050919050565b5f6020601f8301049050919050565b5f82821b905092915050565b5f600883026110e47fffffffffffffffffffffffffffffffffffffffffffffffffffffffffffffffff826110a9565b6110ee86836110a9565b95508019841693508086168417925050509392505050565b5f819050919050565b5f61112961112461111f846107c4565b611106565b6107c4565b9050919050565b5f819050919050565b6111428361110f565b61115661114e82611130565b8484546110b5565b825550505050565b5f90565b61116a61115e565b611175818484611139565b505050565b5b818110156111985761118d5f82611162565b60018101905061117b565b5050565b601f8211156111dd576111ae81611088565b6111b78461109a565b810160208510156111c6578190505b6111da6111d28561109a565b83018261117a565b50505b505050565b5f82821c905092915050565b5f6111fd5f19846008026111e2565b1980831691505092915050565b5f61121583836111ee565b9150826002028217905092915050565b61122e82610c3a565b67ffffffffffffffff81111561124757611246610958565b5b6112518254611058565b61125c82828561119c565b5f60209050601f83116001811461128d575f841561127b578287015190505b611285858261120a565b8655506112ec565b601f19841661129b86611088565b5f5b828110156112c25784890151825560018201915060208501945060208101905061129d565b868310156112df57848901516112db601f8916826111ee565b8355505b6001600288020188555050505b505050505050565b5f6080820190506113075f8301876107cd565b81810360208301526113198186610c7c565b905061132860408301856107cd565b611335606083018461089e565b9594505050505056fea2646970667358221220f11734ee5aff972a5c09eca99d74455a4b93776cf2b39c4186bf64cb22fcc5ea64736f6c63430008140033",
  "immutableReferences": {},
  "source": "// SPDX-License-Identifier: MIT\r\npragma solidity ^0.8.20;\r\n\r\ncontract CarRental {\r\n    struct Car {\r\n        uint id;\r\n        string model;\r\n        uint pricePerDay;\r\n        address payable owner;\r\n        bool isAvailable;\r\n    }\r\n\r\n    struct Booking {\r\n        uint carId;\r\n        address renter;\r\n        uint startDate;\r\n        uint endDate;\r\n    }\r\n\r\n    uint public carCount;\r\n    mapping(uint => Car) public cars;\r\n    mapping(uint => Booking[]) public bookings;\r\n\r\n    event CarListed(uint id, string model, uint price, address owner);\r\n    event CarBooked(uint carId, address renter, uint startDate, uint endDate);\r\n\r\n    function listCar(string memory _model, uint _pricePerDay) public {\r\n        require(_pricePerDay > 0, \"Price must be greater than 0\");\r\n\r\n        carCount++;\r\n        cars[carCount] = Car(carCount, _model, _pricePerDay, payable(msg.sender), true);\r\n        emit CarListed(carCount, _model, _pricePerDay, msg.sender);\r\n    }\r\n\r\n    function bookCar(uint _carId, uint _startDate, uint _endDate) public payable {\r\n        Car storage car = cars[_carId];\r\n        require(car.isAvailable, \"Car not available\");\r\n        require(_startDate < _endDate, \"Invalid dates\");\r\n\r\n        uint daysBooked = (_endDate - _startDate) / 1 days;\r\n        uint totalPrice = daysBooked * car.pricePerDay;\r\n        require(msg.value >= totalPrice, \"Insufficient payment\");\r\n\r\n        car.owner.transfer(msg.value);\r\n        bookings[_carId].push(Booking(_carId, msg.sender, _startDate, _endDate));\r\n        emit CarBooked(_carId, msg.sender, _startDate, _endDate);\r\n    }\r\n\r\n    function getBookings(uint _carId) public view returns (Booking[] memory) {\r\n        return bookings[_carId];\r\n    }\r\n}\r\n",
  "sourcePath": "E:\\Car-Rental-DApp\\contracts\\CarRental.sol",
  "compiler": {
    "name": "solc",
    "version": "0.8.20+commit.a1b79de6.Emscripten.clang"
  },
  "schemaVersion": "3.4.16",
  "updatedAt": "2025-04-06T12:02:21.650Z",
  "devdoc": {
    "kind": "dev",
    "methods": {},
    "version": 1
  },
  "userdoc": {
    "kind": "user",
    "methods": {},
    "version": 1
  }
}